:020000040800F2
:10000000309A002079020008D3260008651B0008FA
:10001000D1260008BD050008D93400080000000002
:10002000000000000000000000000000C101000806
:10003000E50B00080000000015020008A1320008CE
:10004000930200089302000893020008930200083C
:10005000930200089302000893020008930200082C
:10006000930200089302000893020008930200081C
:10007000930200089302000893020008930200080C
:1000800093020008930200089302000893020008FC
:1000900093020008930200089302000893020008EC
:1000A00093020008930200089302000893020008DC
:1000B00093020008930200089302000893020008CC
:1000C00093020008930200089302000893020008BC
:1000D00093020008930200081133000893020008FD
:1000E000B50C000893020008930200089302000870
:1000F000930200089302000893020008930200088C
:10010000930200089302000893020008930200087B
:10011000930200089302000893020008930200086B
:10012000930200089302000893020008930200085B
:10013000930200089302000893020008930200084B
:10014000930200089302000893020008930200083B
:10015000930200089302000893020008930200082B
:10016000930200089302000893020008930200081B
:10017000930200089302000893020008930200080B
:1001800093020008930200089302000893020008FB
:1001900093020008930200089302000893020008EB
:1001A000930200089302000893020008DFF80CD0C5
:1001B00000F0CAF800480047853B0008309A00204C
:1001C0002A4B19680868B0E8F04F80F30988BFF33C
:1001D0006F8F4FF0000080F311887047000000001F
:1001E00006480068006880F3088862B661B6BFF30D
:1001F0004F8FBFF36F8F00DF00BF00BF08ED00E03F
:10020000DFF80C00016841F470010160704700BF25
:1002100088ED00E0EFF30980BFF36F8F134B1A688E
:100220001EF0100F08BF20ED108A20E9F04F10607B
:1002300008B44FF0500080F31188BFF34F8FBFF325
:100240006F8F04F069FA4FF0000080F3118808BC4A
:1002500019680868B0E8F04F1EF0100F08BFB0EC46
:10026000108A80F30988BFF36F8F704794010020D4
:10027000EFF30580704700000648804706480047B6
:10028000FEE7FEE7FEE7FEE7FEE7FEE7FEE7FEE746
:10029000FEE7FEE7B5320008AD01000840EA0103C1
:1002A0009B0703D009E008C9121F08C0042AFAD22C
:1002B00003E011F8013B00F8013B521EF9D27047F0
:1002C000D2B201E000F8012B491EFBD27047002298
:1002D000F6E710B513460A4604461946FFF7F0FF45
:1002E000204610BD2DE9F05F0546002092469B4652
:1002F00088460646814640241BE02846414647463C
:10030000224600F042F853465A46C01A914110D393
:1003100011461846224600F029F82D1A67EB01080D
:100320004F4622460120002100F020F817EB00097B
:100330004E41201EA4F10104DFDC484631462A4626
:100340004346BDE8F09F0000064C074D06E0E0681C
:1003500040F0010394E8070098471034AC42F6D30C
:10036000FFF728FF4866000868660008202A04DBBB
:10037000203A00FA02F1002070479140C2F12003B8
:1003800020FA03F3194390407047202A04DB203AF7
:1003900021FA02F00021704721FA02F3D040C2F1A5
:1003A0002002914008431946704770B58C1810F828
:1003B000015B15F0070301D110F8013B2A1106D1AA
:1003C00010F8012B03E010F8016B01F8016B5B1EC4
:1003D000F9D12B0705D40023521E0DD401F8013B9F
:1003E000FAE710F8013BCB1A921C03E013F8015B0B
:1003F00001F8015B521EF9D5A142D8D3002070BD8F
:100400001CB503F05BFF15480221CDE90010002365
:100410004FF4A06212A1154804F08EFD012802D10C
:1004200013A003F05BF80D480321001DCDE9001077
:1004300000234FF4806214A1154804F07DFD0128CB
:1004400002D114A003F04AF803F074FF03480C38FB
:100450008068BDE81C4004F045B800003000002072
:1004600044485431315F4755490000001D090008D8
:100470005B4F4B5D2044485431315F4755495F54D1
:1004800061736B0D0A0000005253343835000000D0
:10049000BD2B00085B4F4B5D2052533438355F5401
:1004A00061736B0D0A00000010B54FF4407002F04C
:1004B00055F902F00BF800F097FB00F007F902F095
:1004C00025FA01210022080204F008FA234C606199
:1004D000002208210A2004F001FAA0610322002171
:1004E000012004F0FBF9E06110B91DA002F0F6FF55
:1004F00001F01CFF01F05AFF012002F015F8002066
:1005000001F0B4FF4FF40044204601F05FFC0120ED
:1005100001F0ACFFFF2001F0C1FF204601F056FCC6
:1005200021464FF6FF7001F095FF144801F098FF47
:1005300000F02AFE18B112A002F0D0FF02E017A0CE
:1005400002F0CCFF1C484FF480610180C11401808F
:1005500019498014891C088010BD00002400002067
:100560005B4552524F525D20546F7563682073652E
:100570006D6170686F7265210D0A00004C000020EB
:100580005B5741524E5D20546F75636820696E69F8
:1005900074206661696C6564210D0A005B4F4B5DD8
:1005A00020546F7563682070616E656C20726561A0
:1005B00064790D0A00000000181C0240FEE730B507
:1005C0000346002007240EE013F8012B50400022C0
:1005D000050603D584EA4000C0B201E04006000EE3
:1005E000521C082AF4DB491E89B2EDD230BD00004E
:1005F00070B50024184D07E0012000F053F8641C8A
:10060000642C01D9002070BD0421284600F0C4FCF0
:100610000128F1D0002407E0012000F043F8641C19
:10062000642C01D9002070BD0421284600F0B4FCE0
:100630000028F1D0002407E0012000F033F8641C0A
:10064000642C01D9002070BD0421284600F0A4FCD0
:100650000128F1D0012070BD001002400948016856
:10066000C90103D4016841F080710160064800218E
:1006700041600168C90703D1016841F001010160CF
:1006800070470000FCED00E0001000E070B504468B
:100690004FF47A7502E0284600F004F8641E601CEE
:1006A000F9D170BD0649074A0968B1FBF2F141432F
:1006B0000548426843689B1A8B42FBD37047000091
:1006C0000000002040420F00001000E01CB5012196
:1006D000102002F04DF80420009001208DF8040055
:1006E00000218DF8061002218DF805108DF8070005
:1006F000054C6946204600F001FC0421204600F02C
:1007000054FCFFF7ABFF1CBD001002402DE9FC417B
:1007100007468846002000900190002F3AD0B8F19B
:10072000000F37D000F0E4F800F0DCF844F250603D
:10073000FFF7B8FF00F0C0F81E20FFF7B3FF00F08E
:10074000C1F8FFF755FF38B300246E460025305D31
:100750004000305500F060F8315D084330556D1CA5
:10076000EDB2082DF3D3641CE4B2052CEED39DF852
:1007700000009DF801109DF8033042189DF802100A
:100780000B441A449DF80430D2B29A4206D002209B
:10079000BDE8FC810120FBE70120F9E7387088F80B
:1007A00000100020F4E72DE9FC4781468A46904678
:1007B0000026002700240020019000900025B9F1B8
:1007C000000F05D0BAF1000F02D0B8F1000F14D11C
:1007D0000120BDE8FC87694601A8FFF797FF38B9FB
:1007E0009DF8040006449DF800000744641CE4B230
:1007F0007820FFF74BFF6D1CEDB24545EBD34CB1B4
:10080000B6FBF4F089F80000B7FBF4F08AF80000BA
:100810000020DEE70120DCE770B50024134D07E07F
:100820000120FFF73FFF641C642C01D9002070BD3C
:100830000421284600F0B0FB0028F1D02820FFF763
:1008400031FF2C460421204600F0A6FB012804D0ED
:10085000002070BD0120FFF725FF0421204600F095
:100860009BFB0128F6D0012070BD00000010024063
:1008700070B5104C0E4DA37805F8330005EBC3009E
:100880004170827004F096FBA17805EBC1025060C4
:10089000491C0A20B1FBF0F200FB1210A070E078B6
:1008A0000A2801D2401CE070206A401C206270BD02
:1008B000F8010020240000200421014800F075BB4D
:1008C000001002401CB50420009000208DF80400A8
:1008D00001208DF807006946014800F00FFB1CBDA0
:1008E000001002400421014800F05DBB00100240EE
:1008F0001CB50420009001208DF8040000218DF823
:10090000061002218DF805108DF80700694602488F
:1009100000F0F4FA1CBD0000001002401FB54FF0BB
:1009200000080026564F01207871DFF858914FF4E7
:10093000806A4FF4006B0024002364221946F86992
:1009400004F002F8012820D100F02EFD002514E06B
:100950009DB9684601F026F878B104F02BFB811BA5
:10096000B1F5487F09D306463879B0B30020387115
:1009700045A002F0B3FD0124012500231A46694673
:10098000B86903F0E1FF0128E2D004F013FB05464B
:10099000A5EB080041F28831884219D3A84601240A
:1009A000052202A903A8FFF7FEFEE8B102283DD008
:1009B00039A002F093FDA9F800A0A9F800B03149D0
:1009C0002003891C0880002211461046FFF750FFC3
:1009D000787954EA00013BD040E0FFE7012038710C
:1009E00032A002F07BFDC6E79DF808209DF80C10B0
:1009F00033A002F073FDA9F800A02248801CA0F8E3
:100A000000B08014A9F8000003F058FC9DF80C0019
:100A100078709DF80800387003F08CFC01229DF876
:100A200008109DF80C00FFF723FFD1E729A002F082
:100A300055FD1448801CA0F800A0A9F800B080144F
:100A4000A9F80000002211461046FFF711FFBFE78A
:100A5000796A691AB1F5FA6F00D3012404433FF4AF
:100A60006AAF002078717D62387928B100F0F2FC1D
:100A7000012001F027FE5EE700F04CFEF8E70000E1
:100A800024000020181C02405B4755495D202D3E84
:100A9000204D61696E0D0A005B44485431315D2080
:100AA00054696D656F75740D0A0000005B47554908
:100AB0005D202D3E20486973746F72790D0A000025
:100AC0005B44485431315D20256425252020256470
:100AD000430D0A005B44485431315D20436865632F
:100AE0006B73756D206572726F720D0A00000000E5
:100AF00010B50121CC05204601F048FE2046BDE896
:100B00001040002101F042BE01460020024A526816
:100B10000A4200D00120704700B0024030B50024E6
:100B20002A4B19682A4A1140196019680268114352
:100B30001960596B21F007015963596B42681143E1
:100B400059634168002928D001292DD0022930D0CD
:100B5000032933D0C1680A010169090244692403E9
:100B60008568214315430D43996B0D439D6381694E
:100B7000D963196C6FF30D011964196CC2691143C3
:100B80001964818C09045A6C02F040425A645A6C10
:100B9000006A02430A435A6430BDC1680A02018AEE
:100BA0000904047D2406DBE7C1680A02018A0904FE
:100BB000D6E7C1684A010169C902D1E7C1684A01A3
:100BC000016989024469E403CAE7000000B00240F9
:100BD000FCE0FCFF0248016841F001010160704740
:100BE00000B002407047000070B586B00121084691
:100BF00001F0BEFD0121102001F0F2FD00248DF86E
:100C0000164001208DF8170002258DF815508DF83B
:100C10001450400204901C4E04A9304600F06EF9B6
:100C20008DF814506902049104A9304600F066F969
:100C300007220A21304600F09FF907220921304699
:100C400000F09AF94FF4E1300090ADF80440ADF8AF
:100C50000640ADF80840ADF80C400C20ADF80A0095
:100C60000A4C6946204602F0D1FB01F033FD012217
:100C700040F22551204602F0AEFB0121204602F051
:100C800077FB06B070BD000000000240001001407C
:100C900001B502E00098401E009000980028F9D1AC
:100CA00008BD01B502E00098401E009000980028A1
:100CB000F9D108BD38B5002000904FF4005420460B
:100CC00000F020F8002811D0204600F015F8084860
:100CD0006946006804F084F80098002806D00549A9
:100CE000E0030860BFF34F8FBFF36F8F38BD000084
:100CF0004000002004ED00E001490860704700005A
:100D0000143C014001460020024A12680A4200D009
:100D100001207047143C014030B51B4A83790168BB
:100D2000002B2AD013688B431360111D0B680468D5
:100D3000A3430B60017911440B68046823430B60E3
:100D4000114C08342168036899432160231D1968F8
:100D50000568A94319604179102905D011440A6832
:100D6000006802430A6030BD2168026811432160B7
:100D7000196800680143196030BD007910440268A9
:100D80008A43026030BD0000003C014000224FF069
:100D9000204310280AD0B0F5807F09D0B0F5805FDD
:100DA00009D0D3F85801814309D107E0586EFAE71A
:100DB000D3F88400F7E7D3F8A400F4E70122104643
:100DC00070470000D0E9001211438268C068521ECB
:100DD000520142EA4020014301480160704700008F
:100DE000500100A070B50468A100A1F1C041D1F884
:100DF0004011CE0BF603D0E901121143D0E90323D1
:100E00001A4311434269C36911438269056A114358
:100E10001943426A2943114331434FF02046002CC5
:100E20003CD0D6F840416FF30E042B4322431343CA
:100E3000C6F8403102689200A2F1C042C2F84011E7
:100E4000016871B38900A1F1C041D1F8481101F0E6
:100E50007043816A0A684C68521E641E42EA041498
:100E60008A68521E44EA02240A8A521E44EA024256
:100E70001A43D6F8483103F07043CC68898A641E5F
:100E80002403491E44EA01511943C6F84811006879
:100E90008000A0F1C040C0F8482170BDC6F84011E4
:100EA000CEE7FFE7D6F8481101F07041806A02688A
:100EB0004368521E5B1E42EA03138268521E43EAD5
:100EC0000223C268521E43EA0233028A521E43EAD8
:100ED0000243828A007E521E43EA0252401E42EAC8
:100EE00000600843C6F8480170BD000002490A6866
:100EF00042EA400008607047540100A02DE9F0412B
:100F0000002201274FF0030C07FA02F50B682B4073
:100F1000AB422CD1066853000CFA03F4A6430660DA
:100F20000E79D0F800809E4046EA080606600E79E9
:100F3000012E01D0022E12D18668A64386604E791A
:100F4000D0F808809E4046EA080686604668AE43B0
:100F5000466045688E799640B6B235434560C568AF
:100F6000A543C560CC799C40C3681C43C460521C37
:100F7000102AC9D3BDE8F08110B54B07DB0E9A40AB
:100F8000C90800EB8100016A0F249C40A143016263
:100F9000016A1143016210BD0246002012690A4233
:100FA00000D00120704741837047018370470000E3
:100FB0007CB500200090019080258DF800504820DD
:100FC0008DF8010006226946BA2000F049F8002891
:100FD00001DA00207CBD9DF802009DF8031000EBB3
:100FE000012086B29DF804009DF8051000EB012059
:100FF00084B28DF800504D208DF80100032269461F
:10100000BA2000F02DF8002801DA00207CBD9DF800
:10101000020000F003032246314602A002F05EFA0D
:1010200001207CBD3C3C2D4754502D494E464F2D50
:101030003E3E20585F4D4158203D2025642C2059CC
:101040005F4D4158203D2025642C2054524947478C
:101050004552203D203078253032780A00000000CB
:10106000F0B587B00E4617464FF0FF35002400213B
:10107000ADF806108DF804000221ADF808100396B3
:101080000121ADF812108DF81000B81EADF8140053
:10109000B01C069007E0022101A800F048FE0546BA
:1010A000022D02D0641C052CF5DB052C08DB7078C2
:1010B00031782B4640EA0121BA1E034802F00EFAAD
:1010C00007B02846F0BD0000A465000838B50D48FB
:1010D000006800900024651E0DE003226946BA20D6
:1010E000FFF7BEFF45B2002D01DD284638BD214681
:1010F00005A002F0F3F92046641CE4B20528ECD305
:10110000284638BD1C6400083C3C2D4754502D45F2
:1011100052524F522D3E3E20475450206932632098
:1011200074657374206661696C65642074696D65AB
:101130002025642E0A000000FEB50E4617464FF02B
:10114000FF3500240021ADF802108DF80000ADF845
:101150000470029607E00121684600F0E8FD0546AC
:10116000012D02D0641C052CF5DB052C08DB707802
:1011700031782B4640EA0121BA1E024802F0AEF94E
:101180002846FEBDF46500082DE9F0410024B8258D
:1011900000F0C4FDFFF79AFF0646002E05DA21A0F5
:1011A00002F09CF93046BDE8F08100F057F828487D
:1011B000007880B1DFF89C80BA27254EF0210936EF
:1011C000B01CFFF784F83A464146B01CFFF766F8BA
:1011D0000221AA1C09E0DFF87C80A8F1BA08BA272E
:1011E000EBE7705C2044C4B2491C9142F9DBE14357
:1011F000491C701981700121C170002414492A1DF5
:101200000931BA20FFF798FF002802DC641C052C86
:10121000F4DB1148FFF745FD00F0F0FCFFF7C8FED6
:101220000020C0E73C3C2D4754502D4552524F52B0
:101230002D3E3E2049324320636F6D6D756E6963AC
:101240006174696F6E204552524F52210A000000AE
:1012500096000020EA640008FFFF0F0030B585B05B
:101260002C480169C068CDE90301082203A9BA200E
:10127000FFF7F6FE0446200005D527A002F02EF960
:10128000204605B030BD9DF811002E4DA0B19DF84F
:1012900012109DF81320CDE9012100909DF8103027
:1012A0009DF80F209DF80E1027A002F017F99DF869
:1012B0000E0039281ED02BE09DF812009DF8131067
:1012C000CDE900109DF810309DF80F209DF80E100C
:1012D00029A002F003F99DF80E00392818D19DF8D5
:1012E0000F00312814D19DF81000312810D10120B1
:1012F00028700DE09DF80F00312809D19DF81000ED
:10130000352805D19DF81100372801D1002028701B
:101310002046B6E71C6400083C3C2D4754502D4540
:1013200052524F522D3E3E20475450207265616408
:101330002076657273696F6E206661696C65640AF8
:1013400000000000960000203C3C2D4754502D49E1
:101350004E464F2D3E3E20494332205665727369FA
:101360006F6E3A2025632563256325635F25303240
:1013700078253032780A00003C3C2D4754502D49E6
:101380004E464F2D3E3E20494331205665727369CB
:101390006F6E3A202563256325635F2530327825FB
:1013A0003032780A0000000000F00CBB1CB5009140
:1013B000019205480068002804D000231A466946B7
:1013C00003F0E0FB1CBD00003C0000207047000063
:1013D0002DE9F04148F21F054FF6FF7629463046C9
:1013E00001F038F84FF4B4744FF4AA773C23224646
:1013F0003946DC2000F094FD2946304601F02AF8F9
:101400003C2322463946DC2000F00AFE09490979CE
:1014100071B109A42946304601F01CF8094801F0D1
:101420001FF82146BDE8F0414FF4B27000F010BD46
:1014300005A4EFE72400002020203C3C204261630B
:101440006B0000004C00002020486973746F7279B3
:10145000203E3E002DE9F04F93B003F0ABFD074670
:10146000012001F003F84FF40048404600F0AEFCC4
:101470005B4800F0F5FF48F29F254FF6FF742946C0
:10148000204600F0E7FF00211E234FF44872084673
:1014900000F046FD2946204600F0DCFF51A1002067
:1014A00000F0D6FC41464BF6FF7000F0D3FF56A18A
:1014B000302000F0CDFCDFF86CA19AF803000A2878
:1014C0002DD000250024DFF860914FF4616B3C269D
:1014D00004EB4401482000EBC10829190A20B1FBA4
:1014E000F0F200FB12119AF80300844254D209EB87
:1014F000C1029078002843D050684FF47A73381AAC
:10150000B0FBF3F03C280DD25278CDE9002019F859
:101510003130621C45A104A801F0F0FF29E09AF8DF
:101520000250CFE7584511D2B0FBF6F306FB130388
:10153000B0FBF6F05278CDE90103009219F8313092
:10154000621C43A104A801F0D9FF12E0B0FBFBF339
:101550000BFB1303B3FBF6F3B0FBFBF05278CDE9C2
:101560000103009219F83130621C43A104A801F074
:10157000C5FF4FF400414FF6FF7000F06BFF16E01F
:10158000621C47A104A801F0B9FF4FF400414FF4D9
:101590007C4000F05FFF0AE0621C4AA104A801F051
:1015A000ADFF4FF400414FF6FE3000F053FF04A9A9
:1015B000404600F04DFC641CE4B20A2C88D3FFF7CF
:1015C00007FF4FF400414FF6FE3000F043FF46A105
:1015D0004FF4D77000F03CFC13B0BDE8F08F000072
:1015E0004C00002020203D20486973746F727920E0
:1015F0005265636F72647320286C61746573742024
:10160000313029203D00000020204E6F20204875F9
:101610006D6920202054656D7020202020202057E7
:1016200068656E0024000020F80100202532643A2D
:1016300020202025336425252020202025326443C6
:101640002020202020256C75732061676F0000002A
:101650002532643A202020253364252520202020AF
:10166000253264432020202020256C756D256C7563
:10167000732061676F0000002532643A2020202526
:10168000336425252020202025326443202020207B
:1016900020256C7568256C756D2061676F000000F2
:1016A0002532643A2020202045525220202020203C
:1016B00020202D2D20202020202020286661696CEC
:1016C000656429002532643A202020202D2D2D200C
:1016D0002020202020202D2D2020202020202028E8
:1016E000656D70747929000020205B20546F75634C
:1016F0006820424C554520627574746F6E20746F7B
:101700002072657475726E20746F204D61696E2051
:101710005D0000002DE9F0438DB003F04BFC8046E6
:10172000012000F0A3FE4FF40045284600F04EFBD8
:10173000504800F095FE48F29F244FF6FF76214670
:10174000304600F087FE00211E234FF44872084601
:1017500000F0E6FB2146304600F07CFE46A100206A
:1017600000F076FB2946304600F074FE4C4F4DA148
:1017700068463A7801F0C2FE6946502000F068FBE6
:101780007A7850A1684601F0B9FE6946782000F0E9
:101790005FFB4FF6FE362946304600F05BFE022323
:1017A0004FF42A72B4213C2000F0BAFB4FF0D2096A
:1017B000F8784FF6E072002845D0B87809300A2151
:1017C000B0FBF1F301FB1300464901EBC004A07824
:1017D00050B1294648F2E03000F03CFE42A1684694
:1017E0003A6A01F08BFE07E02946104600F032FE0F
:1017F00045A1684601F082FE6946484600F028FB94
:10180000F8272946304600F025FE60684FF47A71CB
:10181000A8EB0000B0FBF1F23C2A04D241A16846DB
:1018200001F06CFE0AE03C20B2FBF0F100FB11235A
:10183000B2FBF0F241A1684601F060FE694638460D
:1018400000F006FB07E02946104600F003FE43A126
:10185000484600F0FDFAFFF7BBFD2946304600F090
:10186000F9FD46A14FF4D77000F0F2FA0DB0BDE8D3
:10187000F08300004C00002020203D2044485431DB
:10188000312054656D706572617475726520262013
:1018900048756D69646974792020233032203D00D9
:1018A000240000202020202020202054656D706519
:1018B000726174757265203A2020253264202043BD
:1018C00000000000202020202020202048756D6985
:1018D0006469747920203A2020253264202025254F
:1018E00000000000F801002020205374617475731B
:1018F0003A204F4B2020202053616D706C65733A65
:1019000020256C75000000002020537461747573ED
:101910003A204C6173742072656164206661696C61
:10192000656400002020557064617465643A202568
:101930006C75207365632061676F0000202055700F
:1019400064617465643A20256C75206D696E20258C
:101950006C75207365632061676F000020205761FC
:101960006974696E6720666F72206669727374208D
:1019700073616D706C652E2E2E00000020205B20A0
:10198000546F75636820424C554520627574746FBE
:101990006E20746F207669657720486973746F7262
:1019A00079205D000168DC39B1F5B47F08D8406862
:1019B000B0F5AA7F04DBB0F5C87F01DC01207047D9
:1019C000002070472DE9F04F97B04CA000681690AA
:1019D00028210DF12C090CA8FEF779FC484C606811
:1019E0000B904FF0BA0B00260C220BA95846FFF7BC
:1019F00037FB0146002905DA42A001F06FFD17B060
:101A0000BDE8F08F9DF82E000028F8D0010669D5BA
:101A100000F00F05052D65D8012D14D9242101AF43
:101A2000381DFEF754FCA0680190681E022101EBEE
:101A3000C002044601A95846FFF712FBE200B91C98
:101A40000EA8FEF72BFCDFF8ECA00AF10408BAF8A8
:101A50000200A84215D818E000246F1E0EE009EB22
:101A6000C400C07800F00F0118F80600884207D0C3
:101A7000BC4201DBFFF7AAFC641CE4B2AC42EED32B
:101A8000761CBAF802008642E6DBDDB1002416E0DF
:101A900009EBC400C17801F00F0608F80460017971
:101AA000427941EA02218279C37942EA0322037A28
:101AB000407A43EA00233046FFF778FC641CAC42CE
:101AC000E6DB0DE0BAF8020050B1002404E018F89B
:101AD0000400FFF77BFC641CBAF802008442F6DBCA
:101AE000AAF80250032216A95846FFF725FB002842
:101AF00085DA11A001F0F2FC81E70000814E0000C0
:101B00001C6400083C3C2D4754502D4552524F5206
:101B10002D3E3E20493243207472616E73666572B9
:101B2000206572726F722E206572726E6F3A256434
:101B30000A200A00960000203C3C2D4754502D49B5
:101B40004E464F2D3E3E20493243207772697465E0
:101B500020656E645F636D64206572726F72210A26
:101B600000000000FEE700002DE9FC41012188058E
:101B700000F028FE0121882000F0FAFD01218803F1
:101B800000F02EFE1020009001258DF80450022454
:101B90008DF805408DF8065000268DF80760154F2A
:101BA00069463846FFF7AAF9202100916946384670
:101BB000FFF7A4F9A00200908DF804508DF80540BD
:101BC0008DF806608DF807400B4F69463846FFF7E1
:101BD00095F9200300908DF804508DF805408DF89C
:101BE00006608DF8074069463846FFF787F9BDE87B
:101BF000FC810000001C0240000C024030B585B0A2
:101C00004FF40055009500248DF8044002208DF813
:101C100005008DF8074069461048FFF76FF90D2160
:101C2000032001F0BDFA03958DF810400C208DF8CB
:101C3000110001258DF8125003A8FFF76DF8282038
:101C40008DF8080006208DF809008DF80A408DF8FF
:101C50000B5002A800F04EFD05B030BD000C024054
:101C600070B506460D46144601F03CFF46F00100F3
:101C700001F00CFF01F066FF88B101F04FFF012079
:101C800070BD012C03D101F0C7FE01F047FF01F048
:101C9000DBFE05F8010B641EA4B201F09BFE002CD4
:101CA000EFD101F03BFF002070BD00002DE9FC47A3
:101CB0004FF40056009601208DF8040002248DF8A0
:101CC000054000258DF806508DF80740114F6946F4
:101CD0003846FFF713F94FF4006841463846FFF7DE
:101CE00062F9DFF834904846FEF7D2FF41463846A5
:101CF000FFF75BF94846FEF7CBFF00968DF80450DE
:101D00008DF805408DF8075069463846FFF7F6F81C
:101D1000BDE8FC87000C0240FFFF0F0010B5FFF785
:101D200023FFFFF7C3FFBDE81040FFF767BF70B5A3
:101D300005460E460024002014E004EB440005EBA9
:101D400080039978C90706D09A8815F82000996809
:101D5000FFF786FF05E01A7915F82000996800F072
:101D600008F8641C08B9B442E7D1002800D1204625
:101D700070BD2DE9F04180460E46154601F0CEFEBD
:101D800000244FF47A7701F0ADFE404601F07EFE6C
:101D900001F0D8FE18B1641CA4B2BC42F3D3BC421B
:101DA00006D00BE0307801F071FE01F0CBFE20B1DF
:101DB00001F0B4FE0120BDE8F081761C6D1EEDB28D
:101DC000F0D201F0ABFE0020F5E70000F0B58BB0DB
:101DD0000446E50A04F01F07C4F34516FEF788FE23
:101DE0004FF440300190022002900496039705952D
:101DF00020040012000E06900C4C60680790002032
:101E000008904FF4F07009904FF448700A9001A8C0
:101E1000FEF784FEFEF7DEFE0220FEF775FE0028C8
:101E2000FAD0208800F034FB0BB0F0BD5400002045
:101E300010B4203AD3B2054AD2681468D2885A4303
:101E400004EB420210BC00F025B800005400002052
:101E50002DE9F04180460D4600240D4E4FF44877A1
:101E600008E021464046FFF7E3FFF0688088204401
:101E700084B26D1CBC4208D22A78002A05D0F068D2
:101E80008188081980B28842EBD2BDE8F081000059
:101E9000540000202DE9F04300254FF4C863584357
:101EA000DFF87890D9F804C0D9F80C7030E000233E
:101EB00026E00C26B4FBF6F6F6004FF0800808FA90
:101EC00006F832F8156048FA03F818EA060F01D14F
:101ED0000C2C08D94FF0010808FA03F816EA080F8D
:101EE00007D10C2C05D90CEB4106B9F8024034524D
:101EF00004E00CEB4106B9F800403452491C5B1C6D
:101F0000BC889C42D5D8BB88C3F5487319446D1C66
:101F1000FB88AB42CBD8BDE8F08300005400002022
:101F20002DE9F0478AB015469946DFF87080B8F879
:101F30000040E60A04F01F07C4F3451401EBC10298
:101F400002EB011100EB4110D8F8041001EB400A3C
:101F5000FEF7CEFD4FF44030009002200190039434
:101F6000029704960F200590CDF818A0C5F548708B
:101F70000790CDF8209009956846FEF7CFFDFEF753
:101F800029FE0220FEF7C0FD0028FAD0B8F80000B4
:101F900000F07EFA0AB0BDE8F0870000540000208F
:101FA0002DE9F0438BB01446984601EBC10202EBD9
:101FB000011100EB41111948426802EB410500880C
:101FC000C60A00F01F07C0F34519FEF791FD4FF454
:101FD0004030019002200290CDF8109003970596B2
:101FE0000F20069007950120B8F1000F11D040F2A4
:101FF0001F31089109940A9001A8FEF78FFDFEF7A2
:10200000E9FD0220FEF780FD0028FAD00BB0BDE804
:10201000F0830021089109900A94EDE75400002014
:102020002DE9F04106460D4617461C4600233A4668
:1020300029463046FFF7B4FF281981B200233A46FB
:102040003046FFF7ADFF0123224629463046FFF711
:10205000A7FFF01922462946BDE8F04180B20123CE
:10206000FFF79EBF2DE9FC5F012140F2FF1000F059
:102070007FFB0427009702208DF805008DF80400EF
:1020800000208DF806008DF8070069469E48FEF78F
:1020900035FF0E2202219C48FEF76EFF4FF0080824
:1020A000CDF8008069469848FEF728FF0E220321EC
:1020B0009548FEF761FFB801009069469248FEF727
:1020C0001DFF0E2208219048FEF756FF01240094C0
:1020D00069468E48FEF712FF092200218B48FEF761
:1020E0004BFF4FF40069CDF8009069468848FEF731
:1020F00005FF0E220B218648FEF73EFF4FF4805A63
:10210000CDF800A069468248FEF7F8FE0E220C21A9
:102110007F48FEF731FF0220009069467B48FEF7BA
:10212000EDFE092201217948FEF726FF40250095A2
:1021300069467848FEF7E2FE0E2206217548FEF752
:102140001BFF2020009069467348FEF7D7FE0E2241
:1021500005217148FEF710FF009569466E48FEF7AD
:10216000CDFE0E2206216C48FEF706FF60030090AC
:1021700069466548FEF7C2FE0E220D216248FEF751
:10218000FBFEA502009569466248FEF7B7FE0922EC
:102190000A216048FEF7F0FEE003009069465A48C5
:1021A000FEF7ACFE0E220F215748FEF7E5FE009425
:1021B00069465A48FEF7A2FE0E2200215748FEF754
:1021C000DBFE80260096DFF858B169465846FEF7D8
:1021D00095FE0E2207215846FEF7CEFE009769466F
:1021E0004E48FEF78BFE0E2202214C48FEF7C4FE3D
:1021F0001027009769464848FEF780FE0E2204210A
:102200004548FEF7B9FECDF800A069464148FEF703
:1022100075FE0E220C213F48FEF7AEFECDF8009071
:1022200069463C48FEF76AFE0E220B213948FEF74C
:10223000A3FE009769463948FEF760FE0E2204218E
:102240003648FEF799FECDF8008069463048FEF723
:1022500055FE0E2203212E48FEF78EFE4FF4007825
:10226000CDF8008069462948FEF748FE0E22092174
:102270002648FEF781FE009669462648FEF73EFE98
:102280000E2207212348FEF777FE00956946234872
:10229000FEF734FE0E220A212048FEF76DFECDF82F
:1022A000008069461D48FEF729FE0E2209211B48C1
:1022B000FEF762FE00951B4D69462846FEF71EFE9E
:1022C0000E220A212846FEF757FE009702208DF8BD
:1022D00005008DF8044000208DF806008DF80740B9
:1022E000114C69462046FEF709FE009669462046D5
:1022F000FEF704FE10212046FEF757FE80212046FF
:10230000FEF753FEBDE8FC9F001C024000040240A3
:10231000000002400018024000100240002002406D
:102320000008024000140240000C024010B590B0BA
:102330000121880600F054FA0121C80500F018FABE
:10234000FFF790FE00F098FE00240194029403949D
:1023500004940D940E940F94042207214FF4C0703E
:1023600000F0CAFA4FF4803000F0B6FA012000F015
:10237000BDFA3D2000F094FA0028FAD005940694A6
:102380002E2007901720089040F24E30099040F21E
:10239000F7100A9040F262300B9040F20D200C9042
:1023A00001A800F0E1F810B010BD000030B591B008
:1023B0002F20019040F24E3002901820039040F2FE
:1023C000F710049003240594FF2006900020079046
:1023D000089009900A904FF480600B9005200C90B3
:1023E00040F243600E90C01E0F904FF4F0701090BA
:1023F0004FF050400D90144D01A9284600F016F9F9
:10240000059412490D9161020B9107210C910E4C1C
:1024100001A98034204600F009F9012000F052F9AA
:102420000121284600F0F6F80121204600F0F2F8DC
:10243000012000F047F9064800F012F8012000F0F2
:1024400083F811B030BD00008468014000B80BD0A3
:102450004C000020014A1080518070475400002039
:102460000149C86070470000540000200649002858
:1024700004D0064848600120886070474FF0504003
:1024800048600020886070475400002000B80BD0DE
:1024900001490880704700005400002010B5094928
:1024A0008968002908D00146074800F0B1F8BDE866
:1024B0001040012000F006B901460348803800F0C2
:1024C000A7F8F4E754000020046901402DE9FC411D
:1024D0000121802000F04CF94FF480640094012029
:1024E0008DF8040000218DF806108DF807008DF896
:1024F00005100C4F69463846FEF700FD6600009651
:1025000069463846FEF7FAFCA5000095694638464C
:10251000FEF7F4FC03481830048006800580BDE80F
:10252000FC810000001C02400649002804D0086815
:1025300040F0010008607047086820F00100086062
:1025400070470000186801400649002804D0086858
:1025500040F4803008607047086820F480300860DC
:10256000704700001868014030B5264A13682649B4
:102570000B401360038A1B04146845692C431C43F9
:102580001460121D13680B401360038B1B04146846
:10259000C5692C431C431460121D13680B40136063
:1025A000038C1B041468456A2C431C431460121DE1
:1025B00013680B401360018D09041368C46A234338
:1025C0000B431360111D0A68104B1A400A60D0E9D2
:1025D00000231A43D0E9023423431A430B681A43F9
:1025E0000A60416B0A02018E0B04064924310C6813
:1025F00004F07F440C600C68806B134304431C435D
:102600000C6030BD0868014000F800F08F88FE0FB4
:1026100041617047002904D0016841F00101016067
:102620007047016821F001010160704770B58A8828
:102630001204436803F4704343600B681343436020
:102640008A891204836803F4704383608B681343A0
:102650008360026922F0070202610A690261CA69A5
:1026600013020A8C120491F824402406856900257F
:1026700085618E6922431E4316438661426922F0BA
:10268000FF0242614A694261C26940F207739A439C
:10269000C261D1E90A231A43C261826A85620A6B68
:1026A00082620A8F1204C36A03F0E023C3624B6B99
:1026B0001343C362026B6FF30A020263C96B0163C7
:1026C00070BD0000014908607047000024680140A7
:1026D000FEE7704708B525208DF8000001208DF831
:1026E00001008DF802008DF80300684600F002F842
:1026F00008BD000030B50F23C27801250178002AFB
:102700001FD0154A126802F4E062C2F5E062C2F31B
:102710000722C2F10404D3404278A24084781C40CE
:102720001443220101F1E02181F80024007800F037
:102730001F018D404009800000F1E020C0F80051E9
:1027400030BD01F01F0085404809800000F1E02005
:10275000C0F8805130BD00000CED00E00249084394
:1027600002490860704700000000FA050CED00E027
:10277000054A002903D011680143116070471168B0
:10278000814311607047000030380240054A00293B
:1027900003D01168014311607047116881431160D3
:1027A0007047000010380240054A002903D0116824
:1027B0000143116070471168814311607047000048
:1027C00038380240054A002903D0116801431160DE
:1027D0007047116881431160704700004038024023
:1027E000054A002903D01168014311607047116840
:1027F00081431160704700004438024070B5244B9B
:10280000196801F00C01234C00291ED0224E042926
:102810001DD008291DD00460196801F0F0010909D4
:102820001E4A545C0168E14041601C6804F4E054B5
:10283000A40A145D21FA04F484601B6803F4604365
:102840005B0BD25CD140C16070BD0460E4E7066000
:10285000E2E70F4A121F1168C1F38055116801F0B9
:102860003F0135B1B6FBF1F11468C4F3881461433C
:1028700005E0B4FBF1F11468C4F3881461431268F5
:10288000C2F30142521C5200B1FBF2F10160C3E7F6
:10289000083802400024F40040787D011400002034
:1028A00002460020510901290BD002290DD0094907
:1028B000096802F01F02012393400B4200D001205F
:1028C0007047044974390968F3E70249091F096828
:1028D000EFE7000074380240034A116821F44031E8
:1028E00001431160704700008C38024001490867BD
:1028F0007047000000004742800140EA0160024941
:1029000040EA027008607047883802402DE9F041C3
:1029100088B001210A20FFF72BFF01214804FFF7AF
:1029200051FF4FF48077069701258DF81C50022641
:102930008DF81D6000248DF81E408DF81F50DFF8C3
:10294000BC8006A94046FEF7D9FA39464046FEF754
:102950002AFB202006908DF81C608DF81D608DF8F4
:102960001E408DF81F50264F06A93846FEF7C6FABE
:10297000402006908DF81C608DF81D608DF81E407B
:102980008DF81F5006A93846FEF7B8FA0722052130
:102990003846FEF7F1FA072206213846FEF7ECFA30
:1029A0004FF4E1300290ADF80C40ADF80E40ADF8B8
:1029B0001040ADF814400C20ADF81200114E02A9E1
:1029C000304600F023FD26218DF8041006218DF8F5
:1029D00005108DF806408DF8075001A8FFF78AFE14
:1029E000012240F22551304600F0F5FC012130462D
:1029F00000F0BEFC08B0BDE8F08100000004024019
:102A0000000C024000440040FEB5C1780122AA2318
:102A10005525012926D0032923D10479D002012C80
:102A20004CD0294908808DF804308DF8052002200B
:102A30008DF8060003208DF807008DF80840052169
:102A400001A8FDF7BCFD8DF809008DF80A5007219B
:102A500001A800F05DF8012C34D01CA11CA000F0EE
:102A60003DFDFEBD8DF800308DF8012005208DF86C
:102A700002008DF8032001F021FC194C20788DF81C
:102A8000040000208DF80500164E31788DF80610F0
:102A90008DF8070001F04EFC08216846FDF78FFD18
:102AA0008DF808008DF809500A21684600F030F8CA
:102AB000327821780CA000F011FDFEBD0249891C7E
:102AC0000880B0E711A1C9E7181C02404F46460034
:102AD00052533438353A204C45442025730D0A00B2
:102AE000240000202500002052533438353A20734A
:102AF000656E642074656D703D2564432068756D56
:102B0000693D256425250D0A000000004F4E000098
:102B10002DE9FC5F07468846264E002240F22551EB
:102B2000304600F058FCDFF890B04FF4807A514600
:102B30005846FEF73AFA4FF00009CDF804904FF4EA
:102B40007A7502E00198401C01900198A842F9DBD7
:102B500000240BE08021304600F016FC0028F9D05C
:102B6000395D304600F0B4FC641CE4B24445F1D356
:102B70004021304600F008FC0028F9D05146584664
:102B8000FEF711FACDF8049002E00198401C019084
:102B90000198A842F9DB3188304601910549091DA9
:102BA0000988009102B00122BDE8F05F40F2255192
:102BB00000F011BC004400400004024008B50025AC
:102BC0000024A1460027DFF818A1DFF818810023B0
:102BD00064226946DAF8000001F0B6FE58B1FA2C1A
:102BE00001D300250024072DF1D2DFE805F0060F00
:102BF0001C2534434C000025E9E79DF80000AA2875
:102C0000E5D1012488F800000125E0E79DF80000E7
:102C1000022801D00025DAE72146641CA4B208F896
:102C200001000225D3E79DF800902046641CA4B261
:102C300008F800900325CAE720469DF80010641CA0
:102C4000A4B208F80010B9F1010F02D90027042539
:102C5000BDE70525BBE720469DF80010641CA4B223
:102C600008F800107F1CFFB2A9F101008742AEDB1B
:102C70000525ACE720469DF80010641CA4B208F8B6
:102C800000100625A3E79DF80000552825D1214610
:102C9000641CA4B208F80100A01E81B21148FDF71F
:102CA0008EFC08EB040111F8021C884215D10025A6
:102CB0000026DFF834B00AE018F806200BEB050018
:102CC0000AA100F01BFC0544302D02DA761CA64256
:102CD000F2DBE1B20348FFF797FE002577E700003B
:102CE00038000020480200206400002025303258BF
:102CF000200000002DE9FC5F0121FC20FFF738FDDA
:102D000002208DF804008DF8050000208DF80600E3
:102D10008DF80700012000906946D148FEF7EEF8D3
:102D20000C220021CE48FEF727F9022000906946C8
:102D3000CB48FEF7E3F80C220121C948FEF71CF945
:102D4000042000906946C648FEF7D8F80C220221FC
:102D5000C348FEF711F9082000906946C048FEF705
:102D6000CDF80C220321BE48FEF706F91027009784
:102D70006946BB48FEF7C2F80C220421B848FEF7AA
:102D8000FBF84FF02008CDF800806946B448FEF704
:102D9000B5F80C220521B248FEF7EEF84FF4805941
:102DA000CDF800906946AE48FEF7A8F80C2211460F
:102DB000AB48FEF7E1F84FF4005ACDF800A06946A1
:102DC000A748FEF79BF80C220D21A548FEF7D4F882
:102DD000BD0200956946A248FEF790F80C220E212C
:102DE0009F48FEF7C9F86C00009469469C48FEF7BE
:102DF00085F80C220F219A48FEF7BEF801200090BA
:102E000069469848FEF77AF80C2200219548FEF7AB
:102E1000B3F80220009069469248FEF76FF80C2242
:102E200001219048FEF7A8F8009569468E48FEF704
:102E300065F80C220E218C48FEF79EF80094694636
:102E40008948FEF75BF80C220F218748FEF794F8BB
:102E50000120009069468448FEF750F80C220021BA
:102E60008148FEF789F80220009069467E48FEF707
:102E700045F80C2201217C48FEF77EF84FF0800BCC
:102E8000CDF800B069467948FEF738F80C220721E2
:102E90007648FEF771F8E611009669467348FEF72A
:102EA0002DF80C2208217148FEF766F8A011009059
:102EB00069466E48FEF722F80C2209216B48FEF79E
:102EC0005BF86011009069466848FEF717F80C221D
:102ED0000A216648FEF750F82011009069466348C1
:102EE000FEF70CF80C220B216048FEF745F8CDF8F0
:102EF000009069465D48FEF701F80C2211465B48D8
:102F0000FEF73AF8CDF800A069465848FDF7F6FFFD
:102F10000C220D215548FEF72FF8009569465348BD
:102F2000FDF7ECFF0C220E215048FEF725F8009427
:102F300069464E48FDF7E2FF0C220F214B48FEF791
:102F40001BF8009669464848FDF7D8FF0C22082177
:102F50004548FEF711F8A011009069464248FDF778
:102F6000CDFF0C2209214048FEF706F860110090C1
:102F700069463D48FDF7C2FF0C220A213A48FDF799
:102F8000FBFF402000903A4D69462846FDF7B6FF0A
:102F90000C2206212846FDF7EFFF009769463148CD
:102FA000FDF7ACFF0C2204212E48FDF7E5FFCDF81C
:102FB000008069462B48FDF7A1FF0C220521294816
:102FC000FDF7DAFF012000902A4F69463846FDF7E9
:102FD00095FF0C2200213846FDF7CEFF201100900E
:102FE00069461F48FDF78AFF0C220B211C48FDF79C
:102FF000C3FF009469461B48FDF780FF0C220F2198
:103000001848FDF7B9FF009669461648FDF776FFA8
:103010000C2208211348FDF7AFFFCDF800B0694638
:103020002846FDF76BFF0C2207212846FDF7A4FF79
:103030000220009069460D48FDF760FF0C22012137
:103040000A48FDF799FF0120009069460748FDF7FF
:1030500055FF0C2200210548FDF78EFFBDE8FC9FBF
:103060000014024000180240000C02400010024010
:10307000001C02400008024000B593B0FFF73AFE82
:1030800001210846FFF790FB0220019007220292DF
:103090000421039104920590069007900120089066
:1030A000002009900A9110210B9140210C914FF4BE
:1030B000C0710D910E904FF400610F911090880037
:1030C000119001A8129008A8FDF78CFE00F002F8FC
:1030D00013B000BD2DE9FF4101250095082601969A
:1030E00002950024039420210120FDF74FFE0028C3
:1030F000F9D16846FDF766FE0A2000F041F802208B
:10310000009001960295039420210120FDF73EFED8
:103110000028F9D16846FDF755FE0320009001967E
:1031200004270297039420210120FDF72FFE002899
:10313000F9D16846FDF746FE20210120FDF726FE65
:103140000028F9D16846FDF73DFE40F23120009796
:1031500001960295039020210120FDF717FE00281B
:10316000F9D16846FDF72EFE40F26A50FDF7BEFE2B
:1031700020210120FDF70AFE0028F9D1BDE8FF81DA
:1031800001B581B0054901984843009002E00098DC
:10319000401E009000980028F9D10CBDA0860100C7
:1031A00010B58A07120F0F23934021F0030406493C
:1031B000214401F608010C689C430C600B689040A8
:1031C00003430B6010BD0000003001401CB500211E
:1031D000019100912E4A106840F4803010604FF445
:1031E000A043106800F4003000900198401C01904A
:1031F000009810B901989842F3D11068800302D565
:103200000120009000E00091009801283FD1204863
:103210004030016841F0805101601E49086840F467
:10322000404008601A48083003680360036843F4AC
:1032300000430360036843F4A0530360041F164B6C
:103240002360136843F08073136013689B01FCD5FF
:103250000A6842F480320A604A68D203FCD50A68E0
:1032600042F400320A604A689203FCD50B4A40F2ED
:1032700005711160016821F003010160016841F0EE
:10328000020101600168C1F381010229FAD11CBD6C
:103290000038024000700040195A4007003C0240CC
:1032A00010B501F079FE012803D0BDE8104001F00F
:1032B000FFBA10BD10B51248016841F470010160F9
:1032C0001048016841F0010101600E4A00210832F6
:1032D000116002680C4B1A400260031D0B4A1A6011
:1032E000026822F48022026006480C300160FFF779
:1032F0006DFF03494FF000608039086010BD000089
:1033000088ED00E000380240FFFFF6FE1030002498
:103310001CB500200190134C40F22551204600F0CE
:103320003AF858B1204600F0CFF800900E480068F7
:1033300020B1002301AA694601F0E4FC08212046DF
:1033400000F022F810B1204600F0BEF801980028E5
:1033500007D006494FF080500860BFF34F8FBFF38E
:103360006F8F1CBD004400403800002004ED00E0D9
:10337000002904D0818941F40051818170478189FD
:1033800021F40051818170470246002012880A42D0
:1033900000D00120704770B5002440F66A12C1F3D6
:1033A000421301F01F05012606FA05F2012B0CD08D
:1033B000022B0DD0838A1340090A8E4000883040CA
:1033C0000BB100B10124204670BD83891340F3E79F
:1033D000038A1340F0E710B540F66A13C1F34213B5
:1033E00001F01F040121A140012B07D0022B07D0BF
:1033F00014303AB102680A43026010BD0C30F8E79D
:103400001030F6E702688A43026010BD7FB50446BB
:103410000D46208A20F44051E88808432082A08984
:1034200041F20C618843A9882A8911436A890243C1
:103430001143A181A08A20F44071A8890843A08289
:103440006846FFF7DBF91E48844202D01D488442DB
:1034500001D1039800E00298A189090408D500EB86
:10346000C00101EB001029684900B0FBF1F007E052
:1034700000EBC00101EB001029688900B0FBF1F0FE
:103480006422B0FBF2F109010B096FF018056B43E0
:1034900000EB8300A3891D044FF0320307D503EB33
:1034A000C000B0FBF2F000F00700084306E003EBB9
:1034B0000010B0FBF2F000F00F00084320817FBD48
:1034C00000100140001401408088C0F308007047DC
:1034D000C1F3080181807047FEE700000FB4054B7F
:1034E00010B503A9044A029800F02CF810BC5DF84E
:1034F00014FB0000B1390008F40100200FB4084BA0
:1035000010B504A902AA039800F01CF8044602A909
:10351000002000F048FA204610BC5DF814FB0000C3
:10352000A739000802E008C8121F08C1002AFAD112
:1035300070477047002001E001C1121F002AFBD133
:10354000704700002DE9FF4F8DB00F46054600265D
:1035500006E025280BD0DDE90F1290476D1C761C84
:1035600028780028F5D111B03046BDE8F08F00244E
:10357000A246A1460122EC4900E0044315F8013FB0
:10358000203B02FA03F00842F7D128782A2810D00D
:103590006FF02F022878A0F13001092914D80AEB26
:1035A0008A0102EB410144F0020400EB010A6D1CA8
:1035B000F0E701CF5FEA000A03D544F40054CAF1F2
:1035C000000A44F002046D1C28782E2817D115F843
:1035D000010F44F004042A280ED06FF02F0228783F
:1035E000A0F1300109290AD809EB890102EB410158
:1035F00000EB01096D1CF2E757F8049B6D1C28785D
:103600006C280FD006DC4C2817D068280DD06A280B
:1036100014D104E0742810D07A280FD10DE044F4BE
:1036200000140AE044F4801401E044F44014697882
:10363000814202D104F580146D1C6D1C2A786E2A1B
:103640001FD00CDC632A31D004DC002A8BD0582A2E
:1036500011D1A3E0642A68D0692A0CD165E0732AED
:103660002ED004DC6F2A73D0702A04D19BE0752A17
:103670006FD0782A6ED01046DDE90F129047761C85
:1036800050E1C4F30250022806D0032809D00428D0
:1036900001CF09D0066045E101CFF117C0E9006113
:1036A00040E101CF06803DE106703BE117F8040BD5
:1036B0008DF8000000208DF80100EB46012003E0AA
:1036C00057F804BB4FF0FF3061074FF0000102D400
:1036D0000DE008F10101884649450FDA8045F8DB25
:1036E0001BF808100029F4D108E008F10101884610
:1036F0008142FADB1BF808100029F6D1DDE90F231F
:10370000AAEB08008146214600F036F9304400EB70
:10371000080604E0DDE90F121BF8010B9047B8F131
:103720000108F7D221464846F7E00A21C4F30253C4
:103730004FF0000B0891022B04D001CFC117032BCF
:1037400009D00AE0FF1D27F00707F7E8020108E0AB
:1037500032E01FE020E000B2C117042B01D140B2DB
:10376000C117031E71F1000307DA4FF0000CD0EB14
:103770000C006CEB01012D2302E0230504D52B2363
:103780008DF82430012303E0E30701D02023F7E77D
:10379000984658E00A2110E010210EE010204FF06A
:1037A000000B08900CE010214FF0000B44F00404D3
:1037B0004FF00809089103E008214FF0000B089131
:1037C000C4F30253022B04D001CF0021032B06D0F7
:1037D00006E0FF1D27F00707F7E8020103E080B2CB
:1037E000042B00D1C0B24FF0000823072BD5702A5C
:1037F00007D0DDF820C08CF0100C5CEA0B0C05D073
:103800000EE040238DF82430012308E050EA010344
:1038100006D030238DF824308DF8252002239846D9
:10382000DDF820C08CF0080C5CEA0B0C0BD150EAE0
:10383000010301D1630706D530238DF824304FF002
:103840000108A9F10109582A04D038A20B9208AA4C
:103850000A920BE03AA2F9E75B46089AFCF742FDB0
:103860000B9B9B5C0A9A521E0A92137050EA01024B
:10387000F2D10A98ADEB000000F1200B600702D5F1
:1038800024F4803401E04FF00109D94502DDA9EBB1
:103890000B0000E0002000EB0B0141440890AAEB74
:1038A000010AE00306D4DDE90F232146504600F06B
:1038B00063F806444FF0000908E009A911F809006F
:1038C000DDE90F12904709F10109761CC145F4DBCF
:1038D000E0030CD5DDE90F232146504600F04CF8FB
:1038E000064404E0DDE90F1230209047761C089969
:1038F000481E08900029F5DC08E00A980A9900782B
:10390000491C0A91DDE90F129047761CBBF10001BA
:10391000ABF1010BF1DC21465046DDE90F2300F04D
:1039200019F806446D1C1BE60928010030313233BA
:1039300034353637383961626364656600000000EB
:1039400030313233343536373839414243444546D5
:10395000000000002DE9F041044600251E461746F0
:10396000880404D405E039462020B0476D1C641E4D
:10397000F9D52846BDE8F0812DE9F041044600253F
:103980001E469046C80301D5302700E02027880452
:1039900004D505E041463846B0476D1C641EF9D594
:1039A0002846BDE8F0810A68531C0B601070704710
:1039B00070B50446064DE1B22846FFF789FD802127
:1039C0002846FFF7E1FC0028F9D0204670BD000032
:1039D0000010014010B50C4C20212046FDF7E3FA01
:1039E00000F014F810212046FDF7DFFA00F00EF881
:1039F00010212046FDF7D7FA00F008F82046BDE870
:103A000010402021FDF7D1BA001C02400020401CCC
:103A1000C0B23228FBD3704710B50A4C2021204693
:103A2000FDF7C3FAFFF7F2FF10212046FDF7BDFABC
:103A3000FFF7ECFF10212046FDF7B5FABDE8104076
:103A4000FFF7E4BF001C024070B5002400250E4EB5
:103A50006006040E10213046FDF7A7FAFFF7D6FFE7
:103A600020213046FDF798FA08B1641CE4B2102119
:103A70003046FDF798FAFFF7C9FF6D1CEDB2082D2F
:103A8000E6D3204670BD0000001C024070B505461C
:103A90000024134E280604D520213046FDF785FA70
:103AA00003E020213046FDF77EFAFFF7AFFF10213B
:103AB0003046FDF77AFAFFF7A9FF10213046FDF7EF
:103AC00072FA072C03D120213046FDF76EFA680602
:103AD000050EFFF79BFF641CE4B2082CDAD370BD1F
:103AE000001C024010B50C4C20212046FDF75DFA69
:103AF00010212046FDF759FAFFF788FF20212046C4
:103B0000FDF751FAFFF782FF10212046FDF74BFA2F
:103B1000BDE81040FFF77ABF001C024010B5084C0A
:103B200020212046FDF73FFA10212046FDF73DFAFF
:103B3000FFF76CFF2046BDE810402021FDF735BAA5
:103B4000001C024070B50E4D20212846FDF72DFACD
:103B5000FFF75CFF10212846FDF727FAFFF756FF15
:103B600020212846FDF718FA08B1012400E00024BE
:103B700010212846FDF717FAFFF748FF204670BDD1
:103B8000001C02401CB5FCF78FFC0AA0FFF7A6FC46
:103B900017480121CDE900104A02002315A1194858
:103BA00001F0CAF9012801D100F064FD4FF0FF30A7
:103BB0001CBD00000D0A3D3D3D2046697265204652
:103BC00034323920204448543131202B2052533490
:103BD0003835202B20546F75636820202841646499
:103BE00072203078303229203D3D3D0D0A0D0A000B
:103BF0002C0000204170705461736B4372656174D6
:103C000065000000010400082DE9F04104460F465C
:103C1000174EF5683068001D00F00CFB38B93068AD
:103C200090F82C1001208840316981433161601C7B
:103C300007D137B13168BDE8F041091D0D4800F0EA
:103C400031BB2C4430684460AC4206D23168B06B62
:103C5000091DBDE8F04100F00DBB3168706B091D16
:103C600000F008FBB06A844200D2B462BDE8F08183
:103C7000940100201806002070B5044600F01EFBD9
:103C80001C4DA868401CA860286810B1686938B14C
:103C90000CE02C60A868012808D100F047F905E085
:103CA0002868E16AC06A884200D82C60686A401CB3
:103CB0006862E06A01212A698140114329610E4945
:103CC00000EB800001EB8000211D00F0EBFA00F01A
:103CD00031FB686900280CD02868E16AC06A884214
:103CE00007D206494FF080500860BFF34F8FBFF3F3
:103CF0006F8F70BD940100204803002004ED00E0A8
:103D000070B5124E124D1CE000F0FEFC306820B180
:103D1000002401F021FAA4B901E00124F9E700F040
:103D2000CDFAF068C468201D00F084FAA868401E2F
:103D3000A8606868401E686000F0FCFA204600F049
:103D40004BF868680028DFD170BD00000406002031
:103D50009401002030B40B46026C002A0CD0C168DC
:103D60001144C1604468A14201D30168C160C168C7
:103D700030BC1846FCF792BA30BC70472DE9F041D0
:103D8000044617460026A56B226C002A1FD07FB17F
:103D9000E068FCF783FAE168206C091AE1602268A8
:103DA000914202D26168081AE060022F0DD00EE045
:103DB000A068FCF773FA216CA0680844A0606168F1
:103DC000884204D32068A06001E005B16D1E6D1C1F
:103DD000A5633046BDE8F08110B50446206B00F0C5
:103DE000DDFA2046BDE8104000F0D8BA4FF410418B
:103DF0000F48420706D0C01D20F007000C49411AA9
:103E0000C1F510410B4A106000235360014408398A
:103E100021F00701103A11604B600B600B1A4360F0
:103E200001604068906050604FF00040D060704783
:103E30002C060020E0010020074E4FF08054074D73
:103E4000FFF75EFF30680128FAD92C60BFF34F8F6F
:103E5000BFF36F8FF4E700004803002004ED00E09B
:103E600003460098002905D00260C3630164012164
:103E700000F02EBE0060F8E72DE9F047DDE90858B4
:103E80000A9C81460E469A46206B521E00EB820029
:103E900020F00707780705D040F22B3218A11FA0A9
:103EA000FFF71CFB00202218315C82F83410315CD3
:103EB00011B1401C1028F6D3002684F84360202D51
:103EC00000D31F25E562201D00F0D1F904F1180090
:103ED00000F0CDF92461C5F12000A0616462666440
:103EE00084F8486052464946384600F091F920600F
:103EF000B8F1000F01D0C8F80040BDE8F08700001D
:103F00002E2E5C2E2E5C4672656552544F535C73A8
:103F100072635C7461736B732E6300004572726F21
:103F2000723A25732C25640D0A00000070B5002438
:103F3000114D04EB840005EB800000F08DF9641C4A
:103F4000202CF6D30D4800F087F90C48143000F00F
:103F500083F90A48283000F07FF908483C3000F027
:103F60007BF90648503000F077F905480349416372
:103F70001431816370BD000048030020C805002093
:103F80009401002030B5134900E011460A688242CE
:103F9000FBD34B685C18844203D1406818444860E6
:103FA00008460D6844682318AB420DD1094B103BFD
:103FB0001B689A4206D05268224442600A6812681E
:103FC000026002E0036000E00260814200D008600D
:103FD00030BD0000E001002010B5044600F06EF98D
:103FE000A06B20B1002400F0A5F9204610BD0124EB
:103FF000F9E710B5044600F061F9A06BE16B884267
:1040000001D1012400E0002400F094F9204610BD05
:104010000748416B0968002905D0416BC968C96828
:104020004968816270474FF0FF318162704700003C
:104030009401002008484068401C05D040F20F124F
:1040400006A111A0FFF74AFA502080F31188BFF3B0
:104050004F8FBFF36F8FFEE7E80100202E2E5C2EFE
:104060002E5C4672656552544F535C706F72745C7F
:10407000525644535C41524D5F434D34465C706F21
:1040800072742E63000000004572726F723A2573DD
:104090002C25640D0A0000002DE9F041044600F0D3
:1040A0000DF994F9455004F1240609E0606A48B11D
:1040B000304600F0FFFF08B100F07EFA6D1E6DB2D1
:1040C000002DF3DC4FF0FF3684F8456000F032F944
:1040D00000F0F4F894F9445004F1100709E0206965
:1040E00048B1384600F0E6FF08B100F065FA6D1EF1
:1040F0006DB2002DF3DC84F84460BDE8F04100F0BF
:1041000019B900002DE9F0410546002600F0FCFA3F
:10411000304F386808B9FFF769FEF86805424BD19F
:1041200075B1083568070BD005F00700C0F108002D
:104130000544680704D0BF2227A131A0FFF7CEF9BC
:10414000002D39D07868854236D82249103108468A
:10415000046801E0214604466068A84202D2206853
:104160000028F7D13868844226D00E6808362068C7
:1041700008606068401B102811D904EB05085FEA4D
:10418000487004D0EC2214A11DA0FFF7A7F96068C5
:10419000401BC8F8040065604046FFF7F3FE616805
:1041A0007868401A7860BA68904200D2B860F868BF
:1041B000014361600020206000F0CEFF700705D051
:1041C0004FF4967204A10EA0FFF788F93046BDE8BF
:1041D000F0810000D00100202E2E5C2E2E5C467255
:1041E000656552544F535C706F72745C4D656D4DD4
:1041F000616E675C686561705F342E63000000006B
:104200004572726F723A25732C25640D0A00000006
:1042100024384FF08073036221F00101C161044929
:10422000816142606FF0020140F820197047000080
:10423000354000080169D0E901329A60D0E90123D4
:104240005A604A68824201D182684A600022026153
:104250000868401E0860704700F1080141604FF097
:10426000FF328260C160016100210160704700215E
:104270000161704730B50C68621C02D000F1080281
:1042800002E0026904E01A4653681D68A542FAD9A3
:1042900053684B6099608A60516008610168491CED
:1042A000016030BD42684A6093688B6093685960D2
:1042B000916008610168491C01607047502080F3DB
:1042C0001188BFF34F8FBFF36F8F09494868401CB7
:1042D000486001280AD10748006810F0FF0F05D098
:1042E00040F2B91204A10FA0FFF7F8B87047000020
:1042F000E801002004ED00E02E2E5C2E2E5C4672BC
:10430000656552544F535C706F72745C52564453DF
:104310005C41524D5F434D34465C706F72742E6346
:10432000000000004572726F723A25732C25640DEF
:104330000A00000010B5094C6068002805D14FF450
:10434000E07207A111A0FFF7C9F86068401E606025
:10435000002801D180F3118810BD0000E801002081
:104360002E2E5C2E2E5C4672656552544F535C7047
:104370006F72745C525644535C41524D5F434D34EE
:10438000465C706F72742E63000000004572726F9D
:10439000723A25732C25640D0A00000070B50028C0
:1043A0002AD008380446154D6068E968084205D1EE
:1043B0004FF4A07212A11CA0FFF790F8206828B15A
:1043C00040F241120EA118A0FFF788F86068E96872
:1043D000084211D02268002A0ED18843606000F0A4
:1043E00093F960686968084468602046FFF7CAFD71
:1043F000BDE8704000F0B0BE70BD0000D0010020EC
:104400002E2E5C2E2E5C4672656552544F535C70A6
:104410006F72745C4D656D4D616E675C686561704F
:104420005F342E63000000004572726F723A25738C
:104430002C25640D0A00000006484FF47A710068CC
:10444000B0FBF1F14FF0E020491E4161072101610D
:10445000704700000000002010B5FBF709FF104C6A
:1044600010280CD300F1E02090F8F0032178884266
:1044700005D24FF440720BA115A0FFF72FF8184892
:104480000068A16800F4E060884207D9BDE81040E8
:104490004FF4447203A10EA0FFF720B810BD000036
:1044A000E80100202E2E5C2E2E5C4672656552546B
:1044B0004F535C706F72745C525644535C41524D62
:1044C0005F434D34465C706F72742E6300000000D1
:1044D0004572726F723A25732C25640D0A00000034
:1044E0000CED00E070B50446FFF7E8FE234D04B97B
:1044F0002C68201DFFF79EFE58B9E06A204A00EBA9
:10450000800152F8211021B9012181402869884396
:104510002861A06A18B104F11800FFF78BFE686AE1
:10452000401C68622868844207D1211D1548FFF7A6
:10453000B9FE6868401C686007E0A868401EA86073
:104540002046FFF749FCFFF763FDFFF7F3FE6869BC
:10455000002812D0286884420FD1286B28B140F27D
:10456000654209A10FA0FEF7B9FF12494FF0805034
:104570000860BFF34F8FBFF36F8F70BD94010020B1
:1045800048030020040600202E2E5C2E2E5C46726E
:10459000656552544F535C7372635C7461736B73E3
:1045A0002E6300004572726F723A25732C25640DDC
:1045B0000A00000004ED00E001490120C8617047D5
:1045C0009401002070B504460D46002C05D140F63C
:1045D000063208A10EA0FEF781FF114801682046AF
:1045E0001831FFF747FE2846BDE870400121FFF76C
:1045F0000BBB00002E2E5C2E2E5C4672656552545D
:104600004F535C7372635C7461736B732E63000051
:104610004572726F723A25732C25640D0A000000F2
:104620009401002010B50446002C05D140F6C1329B
:1046300004A10BA0FEF752FF0D48016A2160C0687B
:10464000606010BD2E2E5C2E2E5C46726565525445
:104650004F535C7372635C7461736B732E63000001
:104660004572726F723A25732C25640D0A000000A2
:10467000940100201CB515480024CDE900402346D4
:10468000802213A1144800F057FC01280AD0401CD6
:104690001BD102B040F28472BDE810400FA116A0F9
:1046A000FEF71CBF502080F31188BFF34F8FBFF37C
:1046B0006F8F06484FF0FF312C3881620121416134
:1046C000C460BDE81C4000F06BB81CBDC0010020F8
:1046D00049444C4500000000393E00082E2E5C2E57
:1046E0002E5C4672656552544F535C7372635C7402
:1046F00061736B732E6300004572726F723A25739B
:104700002C25640D0A0000000248016B491C01635E
:10471000704700009401002070B5144D286B0028EC
:1047200002D00120E86170BD0020E8612869B0FA7C
:1047300080F0C0F11F000E4E00EB800456F82400FC
:1047400028B940F6F6220BA111A0FEF7C7FE06EB32
:10475000840041684968416000F10802914201D13A
:10476000496841604068C068286070BD94010020BD
:10477000480300202E2E5C2E2E5C46726565525436
:104780004F535C7372635C7461736B732E630000D0
:104790004572726F723A25732C25640D0A00000071
:1047A0001CB52F4C20682F49884205D140F2591280
:1047B0002DA138A0FEF792FE20682A49491E8842A2
:1047C00005D14FF4AD7228A132A0FEF787FE354C1B
:1047D00020780190FF202070207800909DF8000044
:1047E0009DF8001000F0F000884205D040F27312EE
:1047F0001DA128A0FEF772FE9DF800002A4A00F0D5
:10480000500010700720906006E09068401E906095
:104810009DF80000400000909DF800000006F4D4D0
:10482000107A000200F4E0609060019820700C485B
:104830002030016841F470010160016841F070416D
:104840000160FFF7F9FD00205060FBF7D9FC174825
:10485000016841F040410160FBF7C2FC00201CBD33
:1048600000ED00E071C20F412E2E5C2E2E5C4672D0
:10487000656552544F535C706F72745C525644536A
:104880005C41524D5F434D34465C706F72742E63D1
:10489000000000004572726F723A25732C25640D7A
:1048A0000A00000000E400E0E801002034EF00E02E
:1048B00010B5502080F31188BFF34F8FBFF36F8F77
:1048C00000F07EFB18B104494FF0805008600020D2
:1048D00080F3118810BD000004ED00E0F8B5054636
:1048E0000E461746002D05D14FF4C4720BA112A03D
:1048F000FEF7F4FD86B105FB06F04830FFF702FC39
:1049000004463CB104F148023B4631462846009437
:10491000FFF7A6FA2046F8BD0020EEE72E2E5C2E0B
:104920002E5C4672656552544F535C7372635C71C2
:10493000756575652E6300004572726F723A257356
:104940002C25640D0A0000002DE9FF4F83B00446BA
:104950008A469B460026002C05D140F2DC4250A13D
:1049600056A0FEF7BBFDBAF1000F07D1206C28B1AD
:1049700040F2DD424AA151A0FEF7B0FD00F00CFB71
:1049800038B9059828B14FF49C6245A14BA0FEF7B9
:10499000A5FD4FF000094FF08057DFF83081FFF799
:1049A0008DFCA56B6DB3E66851462046FFF7D2F942
:1049B000BBF1000F13D0E660606A50B104F124002F
:1049C00000F078FB28B1C8F80070BFF34F8FBFF339
:1049D0006F8FFFF7AFFC012007B0BDE8F08F6D1EB1
:1049E000A56320690028F4D004F1100000F062FBF8
:1049F0000028EED0C8F80070BFF34F8FBFF36F8F61
:104A0000E7E7059808B126B107E0FFF793FC00201F
:104A1000E2E701A8FFF706FE0126FFF78BFCFFF790
:104A200073FEFFF74BFC94F94400401C01D184F85D
:104A3000449094F94500401C01D184F84590FFF75B
:104A400079FC05A901A800F02BFA58B12046FFF720
:104A500023FB00F081FB2046FFF7BEFA00289ED022
:104A60000020B9E72046FFF7B7FA90B104F124001F
:104A70000599FFF7A7FD2046FFF70EFB00F06CFB42
:104A800000288CD1C8F80070BFF34F8FBFF36F8F31
:104A900085E72046FFF700FB00F05EFB7FE70000A4
:104AA0002E2E5C2E2E5C4672656552544F535C73FD
:104AB00072635C71756575652E6300004572726F77
:104AC000723A25732C25640D0A00000004ED00E005
:104AD00070B504460D46002C05D140F21B121DA1F5
:104AE00023A0FEF7FBFCFFF7E9FBD4E90F202168C8
:104AF00002FB001161600021A1632168A160E06BED
:104B00002268216C401E00FB0121E1604FF0FF3064
:104B100084F8440084F8450004F110004DB1FFF71B
:104B20009BFB04F12400FFF797FBFFF703FC012038
:104B300070BD21690029F8D000F0BCFA0028F4D03B
:104B40000F494FF080500860BFF34F8FBFF36F8F56
:104B5000EBE700002E2E5C2E2E5C467265655254EB
:104B60004F535C7372635C71756575652E630000ED
:104B70004572726F723A25732C25640D0A0000008D
:104B800004ED00E02DE9FF4782B004468A461E4648
:104B90000025002C05D140F2D9224EA154A0FEF7E9
:104BA0009DFCBAF1000F07D1206C28B140F2DA2247
:104BB00048A14FA0FEF792FC022E08D1E06B01281D
:104BC00005D040F2DB2243A149A0FEF787FC00F0AC
:104BD000E3F938B9049828B140F2DE223DA144A09F
:104BE000FEF77CFC4FF000094FF08057DFF8108192
:104BF000FFF764FBA06BE16B884205D3022E03D064
:104C0000049808B325B327E0324651462046FFF703
:104C1000B5F8616A59B104F1240000F04BFA68B1AB
:104C2000C8F80070BFF34F8FBFF36F8F06E028B155
:104C3000C8F80070BFF34F8FBFF36F8FFFF77AFB99
:104C4000012006B0BDE8F087FFF774FB0020F8E70D
:104C50006846FFF7E7FC0125FFF76CFBFFF754FD03
:104C6000FFF72CFB94F94400401C01D184F84490D8
:104C700094F94500401C01D184F84590FFF75AFB98
:104C800004A9684600F00CF930B12046FFF704FA99
:104C900000F062FA0020D4E72046FFF7AAF990B1AD
:104CA00004F110000499FFF78DFC2046FFF7F4F99A
:104CB00000F052FA00289BD1C8F80070BFF34F8F64
:104CC000BFF36F8F94E72046FFF7E6F900F044FA50
:104CD0008EE700002E2E5C2E2E5C467265655254C7
:104CE0004F535C7372635C71756575652E6300006C
:104CF0004572726F723A25732C25640D0A0000000C
:104D000004ED00E02DE9F0470446894690461F4631
:104D1000002C05D140F29F3226A12DA0FEF7DEFB2C
:104D2000B9F1000F07D1206C28B14FF4687221A1AE
:104D300027A0FEF7D3FB022F08D1E06B012805D096
:104D400040F2A1321BA122A0FEF7C8FBFFF784FBB3
:104D50005020EFF3118680F31188BFF34F8FBFF31C
:104D60006F8FA06BE16B884206D3022F04D0002026
:104D700086F31188BDE8F08794F945503A464946D4
:104D80002046FEF7FBFF681C04D06D1C84F84550DC
:104D90000120EDE7606A0028FAD004F1240000F059
:104DA00089F90028F4D0B8F1000FF1D00120C8F83B
:104DB0000000EDE72E2E5C2E2E5C46726565525487
:104DC0004F535C7372635C71756575652E6300008B
:104DD0004572726F723A25732C25640D0A0000002B
:104DE00070B504460E46002C05D140F23C4221A18C
:104DF00027A0FEF773FB206C28B14FF488621DA139
:104E000023A0FEF76BFB206838B9606828B140F238
:104E1000454218A11EA0FEF761FBFFF71DFB5020C5
:104E2000EFF3118580F31188BFF34F8FBFF36F8FBE
:104E3000A26BE06B904218D994F94500521CA26312
:104E4000411C04D0401C84F8450001200EE0606A3B
:104E50000028FAD004F1240000F02CF90028F4D046
:104E6000002EF2D001203060EFE7002085F311889A
:104E700070BD00002E2E5C2E2E5C4672656552546D
:104E80004F535C7372635C71756575652E630000CA
:104E90004572726F723A25732C25640D0A0000006A
:104EA00070B504460D46002C05D140F6CB3216A154
:104EB0001CA0FEF713FB2DB940F6CC3212A119A0AD
:104EC000FEF70CFBFFF7FAF91A4AD06829684B1C69
:104ED00008D02368126A934206D06268824203D8DF
:104EE00001240DE000240BE06268801A884206D29B
:104EF000081A28602046FFF795FB002400E00124F3
:104F0000FFF718FA204670BD2E2E5C2E2E5C4672DE
:104F1000656552544F535C7372635C7461736B7359
:104F20002E6300004572726F723A25732C25640D52
:104F30000A000000940100202DE9FF5F8146DDE9B1
:104F40000E788A4616469B46B000FFF7DBF805460A
:104F500028000AD04C20FFF7D5F804460CB1256391
:104F600004E02846FFF71AFA00E000248CB1002084
:104F7000CDE90240CDE900785B46324651464846CD
:104F8000FEF77AFF2046FEF777FE012004B0BDE869
:104F9000F09F4FF0FF30F9E705484169002903D041
:104FA000006B18B100207047012070470220704745
:104FB000940100200148C06870470000940100205F
:104FC0002DE9F04100262E4F386B002808D0B86933
:104FD000401CB861F86900B101263046BDE8F08197
:104FE000FD686D1CFD608DB9786B006828B140F6D6
:104FF000D91224A12AA0FEF771FA786BB96B7963F4
:10500000B863386A401C3862FFF702F8B86ADFF804
:10501000A08085420DD3786B006838B1786BC0688A
:10502000C468606885420ED2B86202E04FF0FF307B
:10503000B8623868C06A00EB800058F82000012888
:10504000C8D90126C6E7201DFFF7F4F8A06A18B1F9
:1050500004F11800FFF7EEF8E06A01213A69814097
:105060001143396100EB800008EB8000211DFFF740
:1050700019F9E06A3968C96A8842CCD30126CAE7BF
:10508000940100202E2E5C2E2E5C467265655254D3
:105090004F535C7372635C7461736B732E630000B7
:1050A0004572726F723A25732C25640D0A00000058
:1050B000480300202DE9F041C068C468002C05D1E8
:1050C00040F6613216A11DA0FEF708FA04F118009F
:1050D0000746FFF7AFF81D4D2A6B012662B139462E
:1050E0001B48FFF7DFF8E06A2968C96A884215D9CA
:1050F0000120EE61BDE8F081201DFFF79BF8E06A1A
:105100002A6906FA00F111432961124900EB800077
:1051100001EB8000211DFFF7C5F8E4E70020E9E777
:105120002E2E5C2E2E5C4672656552544F535C7376
:1051300072635C7461736B732E6300004572726FEF
:10514000723A25732C25640D0A000000940100209A
:10515000F0050020480300202DE9F041002400273D
:105160002B4D286B002805D14FF4FD6229A130A0FA
:10517000FEF7B4F9FFF7A2F8286B401E2863286BEE
:10518000F0BBA868E0B3DFF8B88001261DE0D8F8CE
:105190000C00C46804F11800FFF74CF8201DFFF75D
:1051A00049F8E06A2A6906FA00F1114329612549A4
:1051B00000EB800001EB8000211DFFF773F8E06A2F
:1051C0002968C96A884200D3EE61D8F80000002837
:1051D000DDD10CB1FEF71CFFAC6944B1FFF7F0FE66
:1051E00000B1EE61641E002CF8D10020A861E869CE
:1051F00030B10127144938070860BFF34F8F00E032
:1052000001E0BFF36F8FFFF795F83846BDE8F081F6
:10521000940100202E2E5C2E2E5C46726565525441
:105220004F535C7372635C7461736B732E63000025
:105230004572726F723A25732C25640D0A000000C6
:10524000F00500204803002004ED00E0000000000D
:10525000000000000000000000000000000000004E
:10526000000000000000000000000000000000003E
:1052700000000000000000000000000000008001AD
:105280008001800180018001800180018001800116
:105290008001800180018001000000008001800108
:1052A00000000000000000000000000000000000FE
:1052B000CC00CC00CC00CC00CC00CC000000000026
:1052C00000000000000000000000000000000000DE
:1052D00000000000000000000000000000000000CE
:1052E0000000000000000000600C600C600C300644
:1052F0003006FE1FFE1F300638071803FE1FFE1F74
:10530000180318038C018C018C0100000000800040
:10531000E003F80F9C0E8C1C8C188C009800F80190
:10532000E007800E801C8C188C189C18B80CF00FAD
:10533000E00380008000000000000000000000008A
:1053400000000E181B0C110C11061106110311039D
:105350009B018E01C038C06C6044604430443044CE
:105360001844186C0C380000000000000000E00138
:10537000F0033807180618063003F001F000F800B3
:105380009C310E33061E061C061C063FFC73F021E2
:10539000000000000000000000000000000000000D
:1053A0000C000C000C000C000C000C0000000000B5
:1053B00000000000000000000000000000000000ED
:1053C00000000000000000000000000000000002DB
:1053D00000038001C000C0006000600030003000A9
:1053E00030003000300030003000300060006000DD
:1053F000C000C00080010003000200000000200087
:105400006000C00080018001000300030006000668
:105410000006000600060006000600060003000362
:1054200080018001C000600020000000000000003A
:105430000000000000000000C000C000D806F8070F
:10544000E001300338070000000000000000000009
:10545000000000000000000000000000000000004C
:105460000000000000000000800180018001800138
:105470008001FC3FFC3F80018001800180018001B0
:10548000000000000000000000000000000000001C
:10549000000000000000000000000000000000000C
:1054A000000000000000000000000000000080017B
:1054B00080010001000180000000000000000000E9
:1054C00000000000000000000000000000000000DC
:1054D00000000000E007E0070000000000000000FE
:1054E00000000000000000000000000000000000BC
:1054F00000000000000000000000000000000000AC
:105500000000000000000000000000000000C000DB
:10551000C000000000000000000000000000000CBF
:10552000000C0006000600060003000300038003D1
:10553000800180018001C000C000C00060006000E8
:105540000000000000000000000000000000E00378
:10555000F007380E180C0C180C180C180C180C1836
:105560000C180C180C180C18180C380EF007E00367
:10557000000000000000000000000000000000012A
:105580008001C001F0019801880180018001800143
:105590008001800180018001800180018001800103
:1055A0000000000000000000000000000000E00318
:1055B000F80F180C0C180C1800180018000C000636
:1055C00000038001C000600030001800FC1FFC1FB9
:1055D0000000000000000000000000000000E001EA
:1055E000F807180E0C0C0C0C000C0006C003C007CA
:1055F000000C001800180C180C18180CF807E00321
:105600000000000000000000000000000000000C8E
:10561000000E000F000F800DC00C600C600C300CF1
:10562000180C0C0CFC3FFC3F000C000C000C000C98
:105630000000000000000000000000000000F80F63
:10564000F80F180018000C00EC03FC071C0E001CDF
:105650000018001800180C181C0C180EF807E003AE
:105660000000000000000000000000000000C00773
:10567000F00F381C181818000C00CC03EC0F3C0E6F
:105680001C1C0C180C180C18181C380EF007E00322
:105690000000000000000000000000000000FC1FEF
:1056A000FC1F000C00060006000380038001C001FF
:1056B000C000E0006000600070003000300030008A
:1056C0000000000000000000000000000000E003F7
:1056D000F007380E180C180C180C3806F007F007F5
:1056E000180C0C180C180C180C18380CF80FE003D8
:1056F0000000000000000000000000000000E003C7
:10570000F007380E1C0C0C180C180C181C1C381E3A
:10571000F81BE0190018000C000C1C0EF807F00133
:105720000000000000000000000000000000000079
:105730000000000000000000800180010000000067
:105740000000000000000000000000008001800157
:105750000000000000000000000000000000000049
:105760000000000000000000800180010000000037
:105770000000000000000000000000008001800127
:105780000001000180000000000000000000000097
:105790000000000000000000000000000010001CDD
:1057A000800FE003F8001800F800E003800F001CF1
:1057B00000100000000000000000000000000000D9
:1057C000000000000000000000000000F81F0000C2
:1057D00000000000F81F00000000000000000000B2
:1057E00000000000000000000000000000000000B9
:1057F0000000000000000000000000000800380069
:10580000F001C007001F0018001FC007F00138009A
:105810000800000000000000000000000000E0039D
:10582000F80F180C0C180C180018000C00060003D8
:105830008001C000C000C00000000000C000C00027
:105840000000000000000000000000000000000058
:10585000E00718180420C229224A114409440944C7
:10586000094409221113E20C024004201818E00731
:1058700000000000000000000000000000008003A5
:105880008003C006C006C006600C600C30183018DB
:105890003018F83FF83F1C700C600C6006C006C062
:1058A0000000000000000000000000000000FC03F9
:1058B000FC0F0C0C0C180C180C180C0CFC07FC0F33
:1058C0000C180C300C300C300C300C18FC1FFC0782
:1058D0000000000000000000000000000000C00701
:1058E000F01F38381C300C700660060006000600F9
:1058F00006000600060006600C701C30F01FE00772
:105900000000000000000000000000000000FE0396
:10591000FE0F060E06180618063006300630063052
:1059200006300630063006180618060EFE0FFE0377
:105930000000000000000000000000000000FC3F2C
:10594000FC3F0C000C000C000C000C00FC1FFC1FAA
:105950000C000C000C000C000C000C00FC3FFC3F89
:105960000000000000000000000000000000F83F00
:10597000F83F18001800180018001800F81FF81F4A
:105980001800180018001800180018001800180057
:105990000000000000000000000000000000E00F18
:1059A000F83F3C780E6006E007C00300030003FEEA
:1059B00003FE03C007C006C00EC03CF0F83FE00F76
:1059C00000000000000000000000000000000C309B
:1059D0000C300C300C300C300C300C30FC3FFC3FE9
:1059E0000C300C300C300C300C300C300C300C30D7
:1059F0000000000000000000000000000000800126
:105A0000800180018001800180018001800180018E
:105A1000800180018001800180018001800180017E
:105A20000000000000000000000000000000000670
:105A30000006000600060006000600060006000636
:105A4000000600060006180618063807F003E001F5
:105A50000000000000000000000000000000063010
:105A60000618060C060606038601C60066007600C8
:105A7000DE008E0106030606060C061806300660D8
:105A800000000000000000000000000000001800FE
:105A90001800180018001800180018001800180046
:105AA000180018001800180018001800F81FF81F38
:105AB00000000000000000000000000000000EE0F8
:105AC0001EF01EF01EF036D836D836D836D866CC42
:105AD00066CC66CCC6C6C6C6C6C6C6C686C386C3A0
